XD1THEME 1Theme                                                          000000000000008XD1Theme
XD2THEME 1Theme                                                          000000000000008XD2Theme
XD3THEME 1Theme                                                          000000000000008XD3Theme
XD4THEME 1Theme                                                          000000000000008XD4Theme
